{
  "contractName": "Data",
  "abi": [
    {
      "inputs": [],
      "payable": false,
      "stateMutability": "nonpayable",
      "type": "constructor"
    },
    {
      "constant": true,
      "inputs": [],
      "name": "data",
      "outputs": [
        {
          "internalType": "string",
          "name": "fromUser",
          "type": "string"
        },
        {
          "internalType": "string",
          "name": "toUser",
          "type": "string"
        },
        {
          "internalType": "string",
          "name": "ipfsHash",
          "type": "string"
        },
        {
          "internalType": "string",
          "name": "message",
          "type": "string"
        }
      ],
      "payable": false,
      "stateMutability": "view",
      "type": "function"
    },
    {
      "constant": false,
      "inputs": [
        {
          "internalType": "string",
          "name": "_fromUser",
          "type": "string"
        },
        {
          "internalType": "string",
          "name": "_toUser",
          "type": "string"
        },
        {
          "internalType": "string",
          "name": "_ipfsHash",
          "type": "string"
        },
        {
          "internalType": "string",
          "name": "_message",
          "type": "string"
        }
      ],
      "name": "releaseData",
      "outputs": [],
      "payable": false,
      "stateMutability": "nonpayable",
      "type": "function"
    },
    {
      "constant": true,
      "inputs": [],
      "name": "getData",
      "outputs": [
        {
          "components": [
            {
              "internalType": "string",
              "name": "fromUser",
              "type": "string"
            },
            {
              "internalType": "string",
              "name": "toUser",
              "type": "string"
            },
            {
              "internalType": "string",
              "name": "ipfsHash",
              "type": "string"
            },
            {
              "internalType": "string",
              "name": "message",
              "type": "string"
            }
          ],
          "internalType": "struct Data.Released",
          "name": "",
          "type": "tuple"
        }
      ],
      "payable": false,
      "stateMutability": "view",
      "type": "function"
    }
  ],
  "bytecode": "0x608060405234801561001057600080fd5b5060405180608001604052806040518060400160405280600d81526020017f445661756c74496e697469616c0000000000000000000000000000000000000081525081526020016040518060400160405280600d81526020017f445661756c74496e697469616c0000000000000000000000000000000000000081525081526020016040518060400160405280600d81526020017f445661756c74496e697469616c0000000000000000000000000000000000000081525081526020016040518060400160405280600d81526020017f445661756c74496e697469616c00000000000000000000000000000000000000815250815250600080820151816000019080519060200190610123929190610183565b506020820151816001019080519060200190610140929190610183565b50604082015181600201908051906020019061015d929190610183565b50606082015181600301908051906020019061017a929190610183565b50905050610228565b828054600181600116156101000203166002900490600052602060002090601f016020900481019282601f106101c457805160ff19168380011785556101f2565b828001600101855582156101f2579182015b828111156101f15782518255916020019190600101906101d6565b5b5090506101ff9190610203565b5090565b61022591905b80821115610221576000816000905550600101610209565b5090565b90565b610acd806102376000396000f3fe608060405234801561001057600080fd5b50600436106100415760003560e01c80633bc5de301461004657806373d4a13a14610064578063b0f0743114610085575b600080fd5b61004e6100a1565b60405161005b919061098f565b60405180910390f35b61006c610343565b60405161007c949392919061092e565b60405180910390f35b61009f600480360361009a9190810190610781565b6105c1565b005b6100a9610660565b6000604051806080016040529081600082018054600181600116156101000203166002900480601f01602080910402602001604051908101604052809291908181526020018280546001816001161561010002031660029004801561014f5780601f106101245761010080835404028352916020019161014f565b820191906000526020600020905b81548152906001019060200180831161013257829003601f168201915b50505050508152602001600182018054600181600116156101000203166002900480601f0160208091040260200160405190810160405280929190818152602001828054600181600116156101000203166002900480156101f15780601f106101c6576101008083540402835291602001916101f1565b820191906000526020600020905b8154815290600101906020018083116101d457829003601f168201915b50505050508152602001600282018054600181600116156101000203166002900480601f0160208091040260200160405190810160405280929190818152602001828054600181600116156101000203166002900480156102935780601f1061026857610100808354040283529160200191610293565b820191906000526020600020905b81548152906001019060200180831161027657829003601f168201915b50505050508152602001600382018054600181600116156101000203166002900480601f0160208091040260200160405190810160405280929190818152602001828054600181600116156101000203166002900480156103355780601f1061030a57610100808354040283529160200191610335565b820191906000526020600020905b81548152906001019060200180831161031857829003601f168201915b505050505081525050905090565b6000806000018054600181600116156101000203166002900480601f0160208091040260200160405190810160405280929190818152602001828054600181600116156101000203166002900480156103dd5780601f106103b2576101008083540402835291602001916103dd565b820191906000526020600020905b8154815290600101906020018083116103c057829003601f168201915b505050505090806001018054600181600116156101000203166002900480601f01602080910402602001604051908101604052809291908181526020018280546001816001161561010002031660029004801561047b5780601f106104505761010080835404028352916020019161047b565b820191906000526020600020905b81548152906001019060200180831161045e57829003601f168201915b505050505090806002018054600181600116156101000203166002900480601f0160208091040260200160405190810160405280929190818152602001828054600181600116156101000203166002900480156105195780601f106104ee57610100808354040283529160200191610519565b820191906000526020600020905b8154815290600101906020018083116104fc57829003601f168201915b505050505090806003018054600181600116156101000203166002900480601f0160208091040260200160405190810160405280929190818152602001828054600181600116156101000203166002900480156105b75780601f1061058c576101008083540402835291602001916105b7565b820191906000526020600020905b81548152906001019060200180831161059a57829003601f168201915b5050505050905084565b6040518060800160405280858152602001848152602001838152602001828152506000808201518160000190805190602001906105ff929190610688565b50602082015181600101908051906020019061061c929190610688565b506040820151816002019080519060200190610639929190610688565b506060820151816003019080519060200190610656929190610688565b5090505050505050565b6040518060800160405280606081526020016060815260200160608152602001606081525090565b828054600181600116156101000203166002900490600052602060002090601f016020900481019282601f106106c957805160ff19168380011785556106f7565b828001600101855582156106f7579182015b828111156106f65782518255916020019190600101906106db565b5b5090506107049190610708565b5090565b61072a91905b8082111561072657600081600090555060010161070e565b5090565b90565b600082601f83011261073e57600080fd5b813561075161074c826109de565b6109b1565b9150808252602083016020830185838301111561076d57600080fd5b610778838284610a37565b50505092915050565b6000806000806080858703121561079757600080fd5b600085013567ffffffffffffffff8111156107b157600080fd5b6107bd8782880161072d565b945050602085013567ffffffffffffffff8111156107da57600080fd5b6107e68782880161072d565b935050604085013567ffffffffffffffff81111561080357600080fd5b61080f8782880161072d565b925050606085013567ffffffffffffffff81111561082c57600080fd5b6108388782880161072d565b91505092959194509250565b600061084f82610a0a565b6108598185610a15565b9350610869818560208601610a46565b61087281610a79565b840191505092915050565b600061088882610a0a565b6108928185610a26565b93506108a2818560208601610a46565b6108ab81610a79565b840191505092915050565b600060808301600083015184820360008601526108d38282610844565b915050602083015184820360208601526108ed8282610844565b915050604083015184820360408601526109078282610844565b915050606083015184820360608601526109218282610844565b9150508091505092915050565b60006080820190508181036000830152610948818761087d565b9050818103602083015261095c818661087d565b90508181036040830152610970818561087d565b90508181036060830152610984818461087d565b905095945050505050565b600060208201905081810360008301526109a981846108b6565b905092915050565b6000604051905081810181811067ffffffffffffffff821117156109d457600080fd5b8060405250919050565b600067ffffffffffffffff8211156109f557600080fd5b601f19601f8301169050602081019050919050565b600081519050919050565b600082825260208201905092915050565b600082825260208201905092915050565b82818337600083830152505050565b60005b83811015610a64578082015181840152602081019050610a49565b83811115610a73576000848401525b50505050565b6000601f19601f830116905091905056fea365627a7a72315820a991214b8d0054e7385b1381628a4c1b79c93d0ca0df113e1b9f7486273cbcf66c6578706572696d656e74616cf564736f6c63430005100040",
  "source": "// SPDX-License-Identifier: MIT\n\npragma solidity >=0.4.22 <0.8.0;\npragma experimental ABIEncoderV2;\n\ncontract Data {\n\n    struct Released {\n        string fromUser;\n        string toUser;\n        string ipfsHash;\n        string message;\n    }\n\n    Released public data;\n\n    constructor() public{\n        data = Released(\"DVaultInitial\",\"DVaultInitial\",\"DVaultInitial\",\"DVaultInitial\");\n    }\n\n    function releaseData(string memory _fromUser,string memory _toUser,string memory _ipfsHash,string memory _message) public{\n        data = Released(_fromUser, _toUser, _ipfsHash, _message);\n    }\n\n    function getData() public view returns (Released memory) {\n        return data;\n    }\n}",
  "sourcePath": "/home/kushagra/Documents/deadman/contracts/Data.sol",
  "compiler": {
    "name": "solc",
    "version": "0.5.16+commit.9c3226ce.Emscripten.clang"
  },
  "schemaVersion": "3.3.1",
  "updatedAt": "2020-12-15T16:15:38.123Z",
  "networkType": "ethereum",
  "devdoc": {
    "methods": {}
  },
  "userdoc": {
    "methods": {}
  }
}