{
  "contractName": "Life",
  "abi": [
    {
      "inputs": [],
      "payable": false,
      "stateMutability": "nonpayable",
      "type": "constructor"
    },
    {
      "constant": true,
      "inputs": [],
      "name": "lifeProof",
      "outputs": [
        {
          "internalType": "string",
          "name": "userId",
          "type": "string"
        },
        {
          "internalType": "string",
          "name": "date",
          "type": "string"
        },
        {
          "internalType": "string",
          "name": "message",
          "type": "string"
        }
      ],
      "payable": false,
      "stateMutability": "view",
      "type": "function"
    },
    {
      "constant": false,
      "inputs": [
        {
          "internalType": "string",
          "name": "_fromUser",
          "type": "string"
        },
        {
          "internalType": "string",
          "name": "_date",
          "type": "string"
        },
        {
          "internalType": "string",
          "name": "_message",
          "type": "string"
        }
      ],
      "name": "releaseLifeProof",
      "outputs": [],
      "payable": false,
      "stateMutability": "nonpayable",
      "type": "function"
    },
    {
      "constant": true,
      "inputs": [],
      "name": "getLifeProof",
      "outputs": [
        {
          "components": [
            {
              "internalType": "string",
              "name": "userId",
              "type": "string"
            },
            {
              "internalType": "string",
              "name": "date",
              "type": "string"
            },
            {
              "internalType": "string",
              "name": "message",
              "type": "string"
            }
          ],
          "internalType": "struct Life.Proof",
          "name": "",
          "type": "tuple"
        }
      ],
      "payable": false,
      "stateMutability": "view",
      "type": "function"
    }
  ],
  "bytecode": "0x608060405234801561001057600080fd5b5060405180606001604052806040518060400160405280600d81526020017f445661756c74496e697469616c0000000000000000000000000000000000000081525081526020016040518060400160405280600d81526020017f445661756c74496e697469616c0000000000000000000000000000000000000081525081526020016040518060400160405280600d81526020017f445661756c74496e697469616c000000000000000000000000000000000000008152508152506000808201518160000190805190602001906100e892919061012b565b50602082015181600101908051906020019061010592919061012b565b50604082015181600201908051906020019061012292919061012b565b509050506101d0565b828054600181600116156101000203166002900490600052602060002090601f016020900481019282601f1061016c57805160ff191683800117855561019a565b8280016001018555821561019a579182015b8281111561019957825182559160200191906001019061017e565b5b5090506101a791906101ab565b5090565b6101cd91905b808211156101c95760008160009055506001016101b1565b5090565b90565b610906806101df6000396000f3fe608060405234801561001057600080fd5b50600436106100415760003560e01c80630127a05d14610046578063b4dd329b14610064578063bc2ba45414610080575b600080fd5b61004e6100a0565b60405161005b91906107c8565b60405180910390f35b61007e60048036036100799190810190610615565b6102a0565b005b61008861031b565b6040516100979392919061077c565b60405180910390f35b6100a86104fb565b6000604051806060016040529081600082018054600181600116156101000203166002900480601f01602080910402602001604051908101604052809291908181526020018280546001816001161561010002031660029004801561014e5780601f106101235761010080835404028352916020019161014e565b820191906000526020600020905b81548152906001019060200180831161013157829003601f168201915b50505050508152602001600182018054600181600116156101000203166002900480601f0160208091040260200160405190810160405280929190818152602001828054600181600116156101000203166002900480156101f05780601f106101c5576101008083540402835291602001916101f0565b820191906000526020600020905b8154815290600101906020018083116101d357829003601f168201915b50505050508152602001600282018054600181600116156101000203166002900480601f0160208091040260200160405190810160405280929190818152602001828054600181600116156101000203166002900480156102925780601f1061026757610100808354040283529160200191610292565b820191906000526020600020905b81548152906001019060200180831161027557829003601f168201915b505050505081525050905090565b6040518060600160405280848152602001838152602001828152506000808201518160000190805190602001906102d892919061051c565b5060208201518160010190805190602001906102f592919061051c565b50604082015181600201908051906020019061031292919061051c565b50905050505050565b6000806000018054600181600116156101000203166002900480601f0160208091040260200160405190810160405280929190818152602001828054600181600116156101000203166002900480156103b55780601f1061038a576101008083540402835291602001916103b5565b820191906000526020600020905b81548152906001019060200180831161039857829003601f168201915b505050505090806001018054600181600116156101000203166002900480601f0160208091040260200160405190810160405280929190818152602001828054600181600116156101000203166002900480156104535780601f1061042857610100808354040283529160200191610453565b820191906000526020600020905b81548152906001019060200180831161043657829003601f168201915b505050505090806002018054600181600116156101000203166002900480601f0160208091040260200160405190810160405280929190818152602001828054600181600116156101000203166002900480156104f15780601f106104c6576101008083540402835291602001916104f1565b820191906000526020600020905b8154815290600101906020018083116104d457829003601f168201915b5050505050905083565b60405180606001604052806060815260200160608152602001606081525090565b828054600181600116156101000203166002900490600052602060002090601f016020900481019282601f1061055d57805160ff191683800117855561058b565b8280016001018555821561058b579182015b8281111561058a57825182559160200191906001019061056f565b5b509050610598919061059c565b5090565b6105be91905b808211156105ba5760008160009055506001016105a2565b5090565b90565b600082601f8301126105d257600080fd5b81356105e56105e082610817565b6107ea565b9150808252602083016020830185838301111561060157600080fd5b61060c838284610870565b50505092915050565b60008060006060848603121561062a57600080fd5b600084013567ffffffffffffffff81111561064457600080fd5b610650868287016105c1565b935050602084013567ffffffffffffffff81111561066d57600080fd5b610679868287016105c1565b925050604084013567ffffffffffffffff81111561069657600080fd5b6106a2868287016105c1565b9150509250925092565b60006106b782610843565b6106c1818561084e565b93506106d181856020860161087f565b6106da816108b2565b840191505092915050565b60006106f082610843565b6106fa818561085f565b935061070a81856020860161087f565b610713816108b2565b840191505092915050565b6000606083016000830151848203600086015261073b82826106ac565b9150506020830151848203602086015261075582826106ac565b9150506040830151848203604086015261076f82826106ac565b9150508091505092915050565b6000606082019050818103600083015261079681866106e5565b905081810360208301526107aa81856106e5565b905081810360408301526107be81846106e5565b9050949350505050565b600060208201905081810360008301526107e2818461071e565b905092915050565b6000604051905081810181811067ffffffffffffffff8211171561080d57600080fd5b8060405250919050565b600067ffffffffffffffff82111561082e57600080fd5b601f19601f8301169050602081019050919050565b600081519050919050565b600082825260208201905092915050565b600082825260208201905092915050565b82818337600083830152505050565b60005b8381101561089d578082015181840152602081019050610882565b838111156108ac576000848401525b50505050565b6000601f19601f830116905091905056fea365627a7a72315820c0672c4648b9d8e86c7224ed4bd3462e23bf6dea1610c7ef30e2cc22cada48d86c6578706572696d656e74616cf564736f6c63430005100040",
  "source": "// SPDX-License-Identifier: MIT\n\npragma solidity >=0.4.22 <0.8.0;\npragma experimental ABIEncoderV2;\n\n\ncontract Life {\n\n    struct Proof {\n        string userId;\n        string date;\n        string message;\n\n    }\n\n    Proof public lifeProof;\n\n    constructor() public{\n        lifeProof = Proof(\"DVaultInitial\",\"DVaultInitial\",\"DVaultInitial\");\n    }\n\n    function releaseLifeProof(string memory _fromUser,string memory _date,string memory _message) public{\n        lifeProof = Proof(_fromUser, _date,  _message);\n    }\n\n    function getLifeProof() public view returns (Proof memory) {\n        return lifeProof;\n    }\n}",
  "sourcePath": "/home/kushagra/Documents/deadman/contracts/Life.sol",
  "compiler": {
    "name": "solc",
    "version": "0.5.16+commit.9c3226ce.Emscripten.clang"
  },
  "schemaVersion": "3.3.1",
  "updatedAt": "2020-12-11T09:56:35.549Z",
  "networkType": "ethereum",
  "devdoc": {
    "methods": {}
  },
  "userdoc": {
    "methods": {}
  }
}